{
  "_format": "hh-sol-artifact-1",
  "contractName": "MyERC1155NFT",
  "sourceName": "contracts/MyERC1155NFT.sol",
  "abi": [
    {
      "inputs": [],
      "stateMutability": "nonpayable",
      "type": "constructor"
    },
    {
      "anonymous": false,
      "inputs": [
        {
          "indexed": true,
          "internalType": "address",
          "name": "account",
          "type": "address"
        },
        {
          "indexed": true,
          "internalType": "address",
          "name": "operator",
          "type": "address"
        },
        {
          "indexed": false,
          "internalType": "bool",
          "name": "approved",
          "type": "bool"
        }
      ],
      "name": "ApprovalForAll",
      "type": "event"
    },
    {
      "anonymous": false,
      "inputs": [
        {
          "indexed": true,
          "internalType": "address",
          "name": "previousOwner",
          "type": "address"
        },
        {
          "indexed": true,
          "internalType": "address",
          "name": "newOwner",
          "type": "address"
        }
      ],
      "name": "OwnershipTransferred",
      "type": "event"
    },
    {
      "anonymous": false,
      "inputs": [
        {
          "indexed": true,
          "internalType": "address",
          "name": "operator",
          "type": "address"
        },
        {
          "indexed": true,
          "internalType": "address",
          "name": "from",
          "type": "address"
        },
        {
          "indexed": true,
          "internalType": "address",
          "name": "to",
          "type": "address"
        },
        {
          "indexed": false,
          "internalType": "uint256[]",
          "name": "ids",
          "type": "uint256[]"
        },
        {
          "indexed": false,
          "internalType": "uint256[]",
          "name": "values",
          "type": "uint256[]"
        }
      ],
      "name": "TransferBatch",
      "type": "event"
    },
    {
      "anonymous": false,
      "inputs": [
        {
          "indexed": true,
          "internalType": "address",
          "name": "operator",
          "type": "address"
        },
        {
          "indexed": true,
          "internalType": "address",
          "name": "from",
          "type": "address"
        },
        {
          "indexed": true,
          "internalType": "address",
          "name": "to",
          "type": "address"
        },
        {
          "indexed": false,
          "internalType": "uint256",
          "name": "id",
          "type": "uint256"
        },
        {
          "indexed": false,
          "internalType": "uint256",
          "name": "value",
          "type": "uint256"
        }
      ],
      "name": "TransferSingle",
      "type": "event"
    },
    {
      "anonymous": false,
      "inputs": [
        {
          "indexed": false,
          "internalType": "string",
          "name": "value",
          "type": "string"
        },
        {
          "indexed": true,
          "internalType": "uint256",
          "name": "id",
          "type": "uint256"
        }
      ],
      "name": "URI",
      "type": "event"
    },
    {
      "inputs": [
        {
          "internalType": "address",
          "name": "account",
          "type": "address"
        },
        {
          "internalType": "uint256",
          "name": "id",
          "type": "uint256"
        }
      ],
      "name": "balanceOf",
      "outputs": [
        {
          "internalType": "uint256",
          "name": "",
          "type": "uint256"
        }
      ],
      "stateMutability": "view",
      "type": "function"
    },
    {
      "inputs": [
        {
          "internalType": "address[]",
          "name": "accounts",
          "type": "address[]"
        },
        {
          "internalType": "uint256[]",
          "name": "ids",
          "type": "uint256[]"
        }
      ],
      "name": "balanceOfBatch",
      "outputs": [
        {
          "internalType": "uint256[]",
          "name": "",
          "type": "uint256[]"
        }
      ],
      "stateMutability": "view",
      "type": "function"
    },
    {
      "inputs": [
        {
          "internalType": "address",
          "name": "account",
          "type": "address"
        },
        {
          "internalType": "address",
          "name": "operator",
          "type": "address"
        }
      ],
      "name": "isApprovedForAll",
      "outputs": [
        {
          "internalType": "bool",
          "name": "",
          "type": "bool"
        }
      ],
      "stateMutability": "view",
      "type": "function"
    },
    {
      "inputs": [
        {
          "internalType": "address",
          "name": "recipient",
          "type": "address"
        },
        {
          "internalType": "string",
          "name": "_tokenURI",
          "type": "string"
        }
      ],
      "name": "mintNFT",
      "outputs": [
        {
          "internalType": "uint256",
          "name": "",
          "type": "uint256"
        }
      ],
      "stateMutability": "nonpayable",
      "type": "function"
    },
    {
      "inputs": [],
      "name": "owner",
      "outputs": [
        {
          "internalType": "address",
          "name": "",
          "type": "address"
        }
      ],
      "stateMutability": "view",
      "type": "function"
    },
    {
      "inputs": [],
      "name": "renounceOwnership",
      "outputs": [],
      "stateMutability": "nonpayable",
      "type": "function"
    },
    {
      "inputs": [
        {
          "internalType": "address",
          "name": "from",
          "type": "address"
        },
        {
          "internalType": "address",
          "name": "to",
          "type": "address"
        },
        {
          "internalType": "uint256[]",
          "name": "ids",
          "type": "uint256[]"
        },
        {
          "internalType": "uint256[]",
          "name": "amounts",
          "type": "uint256[]"
        },
        {
          "internalType": "bytes",
          "name": "data",
          "type": "bytes"
        }
      ],
      "name": "safeBatchTransferFrom",
      "outputs": [],
      "stateMutability": "nonpayable",
      "type": "function"
    },
    {
      "inputs": [
        {
          "internalType": "address",
          "name": "from",
          "type": "address"
        },
        {
          "internalType": "address",
          "name": "to",
          "type": "address"
        },
        {
          "internalType": "uint256",
          "name": "id",
          "type": "uint256"
        },
        {
          "internalType": "uint256",
          "name": "amount",
          "type": "uint256"
        },
        {
          "internalType": "bytes",
          "name": "data",
          "type": "bytes"
        }
      ],
      "name": "safeTransferFrom",
      "outputs": [],
      "stateMutability": "nonpayable",
      "type": "function"
    },
    {
      "inputs": [
        {
          "internalType": "address",
          "name": "operator",
          "type": "address"
        },
        {
          "internalType": "bool",
          "name": "approved",
          "type": "bool"
        }
      ],
      "name": "setApprovalForAll",
      "outputs": [],
      "stateMutability": "nonpayable",
      "type": "function"
    },
    {
      "inputs": [
        {
          "internalType": "bytes4",
          "name": "interfaceId",
          "type": "bytes4"
        }
      ],
      "name": "supportsInterface",
      "outputs": [
        {
          "internalType": "bool",
          "name": "",
          "type": "bool"
        }
      ],
      "stateMutability": "view",
      "type": "function"
    },
    {
      "inputs": [
        {
          "internalType": "address",
          "name": "newOwner",
          "type": "address"
        }
      ],
      "name": "transferOwnership",
      "outputs": [],
      "stateMutability": "nonpayable",
      "type": "function"
    },
    {
      "inputs": [
        {
          "internalType": "uint256",
          "name": "",
          "type": "uint256"
        }
      ],
      "name": "uri",
      "outputs": [
        {
          "internalType": "string",
          "name": "",
          "type": "string"
        }
      ],
      "stateMutability": "view",
      "type": "function"
    }
  ],
  "bytecode": "0x60806040523480156200001157600080fd5b506040518060200160405280600081525062000033816200005a60201b60201c565b5062000054620000486200006f60201b60201c565b6200007760201b60201c565b6200049e565b80600290816200006b9190620003b7565b5050565b600033905090565b6000600360009054906101000a900473ffffffffffffffffffffffffffffffffffffffff16905081600360006101000a81548173ffffffffffffffffffffffffffffffffffffffff021916908373ffffffffffffffffffffffffffffffffffffffff1602179055508173ffffffffffffffffffffffffffffffffffffffff168173ffffffffffffffffffffffffffffffffffffffff167f8be0079c531659141344cd1fd0a4f28419497f9722a3daafe3b4186f6b6457e060405160405180910390a35050565b600081519050919050565b7f4e487b7100000000000000000000000000000000000000000000000000000000600052604160045260246000fd5b7f4e487b7100000000000000000000000000000000000000000000000000000000600052602260045260246000fd5b60006002820490506001821680620001bf57607f821691505b602082108103620001d557620001d462000177565b5b50919050565b60008190508160005260206000209050919050565b60006020601f8301049050919050565b600082821b905092915050565b6000600883026200023f7fffffffffffffffffffffffffffffffffffffffffffffffffffffffffffffffff8262000200565b6200024b868362000200565b95508019841693508086168417925050509392505050565b6000819050919050565b6000819050919050565b600062000298620002926200028c8462000263565b6200026d565b62000263565b9050919050565b6000819050919050565b620002b48362000277565b620002cc620002c3826200029f565b8484546200020d565b825550505050565b600090565b620002e3620002d4565b620002f0818484620002a9565b505050565b5b8181101562000318576200030c600082620002d9565b600181019050620002f6565b5050565b601f82111562000367576200033181620001db565b6200033c84620001f0565b810160208510156200034c578190505b620003646200035b85620001f0565b830182620002f5565b50505b505050565b600082821c905092915050565b60006200038c600019846008026200036c565b1980831691505092915050565b6000620003a7838362000379565b9150826002028217905092915050565b620003c2826200013d565b67ffffffffffffffff811115620003de57620003dd62000148565b5b620003ea8254620001a6565b620003f78282856200031c565b600060209050601f8311600181146200042f57600084156200041a578287015190505b62000426858262000399565b86555062000496565b601f1984166200043f86620001db565b60005b82811015620004695784890151825560018201915060208501945060208101905062000442565b8683101562000489578489015162000485601f89168262000379565b8355505b6001600288020188555050505b505050505050565b612f3280620004ae6000396000f3fe608060405234801561001057600080fd5b50600436106100b35760003560e01c80638da5cb5b116100715780638da5cb5b1461019e578063a22cb465146101bc578063e985e9c5146101d8578063eacabe1414610208578063f242432a14610238578063f2fde38b14610254576100b3565b8062fdd58e146100b857806301ffc9a7146100e85780630e89341c146101185780632eb2c2d6146101485780634e1273f414610164578063715018a614610194575b600080fd5b6100d260048036038101906100cd9190611898565b610270565b6040516100df91906118e7565b60405180910390f35b61010260048036038101906100fd919061195a565b610338565b60405161010f91906119a2565b60405180910390f35b610132600480360381019061012d91906119bd565b61041a565b60405161013f9190611a7a565b60405180910390f35b610162600480360381019061015d9190611c99565b6104ae565b005b61017e60048036038101906101799190611e2b565b61054f565b60405161018b9190611f61565b60405180910390f35b61019c610668565b005b6101a661067c565b6040516101b39190611f92565b60405180910390f35b6101d660048036038101906101d19190611fd9565b6106a6565b005b6101f260048036038101906101ed9190612019565b6106bc565b6040516101ff91906119a2565b60405180910390f35b610222600480360381019061021d91906120fa565b610750565b60405161022f91906118e7565b60405180910390f35b610252600480360381019061024d9190612156565b61079a565b005b61026e600480360381019061026991906121ed565b61083b565b005b60008073ffffffffffffffffffffffffffffffffffffffff168373ffffffffffffffffffffffffffffffffffffffff16036102e0576040517f08c379a00000000000000000000000000000000000000000000000000000000081526004016102d79061228c565b60405180910390fd5b60008083815260200190815260200160002060008473ffffffffffffffffffffffffffffffffffffffff1673ffffffffffffffffffffffffffffffffffffffff16815260200190815260200160002054905092915050565b60007fd9b67a26000000000000000000000000000000000000000000000000000000007bffffffffffffffffffffffffffffffffffffffffffffffffffffffff1916827bffffffffffffffffffffffffffffffffffffffffffffffffffffffff1916148061040357507f0e89341c000000000000000000000000000000000000000000000000000000007bffffffffffffffffffffffffffffffffffffffffffffffffffffffff1916827bffffffffffffffffffffffffffffffffffffffffffffffffffffffff1916145b806104135750610412826108be565b5b9050919050565b606060028054610429906122db565b80601f0160208091040260200160405190810160405280929190818152602001828054610455906122db565b80156104a25780601f10610477576101008083540402835291602001916104a2565b820191906000526020600020905b81548152906001019060200180831161048557829003601f168201915b50505050509050919050565b6104b6610928565b73ffffffffffffffffffffffffffffffffffffffff168573ffffffffffffffffffffffffffffffffffffffff1614806104fc57506104fb856104f6610928565b6106bc565b5b61053b576040517f08c379a00000000000000000000000000000000000000000000000000000000081526004016105329061237e565b60405180910390fd5b6105488585858585610930565b5050505050565b60608151835114610595576040517f08c379a000000000000000000000000000000000000000000000000000000000815260040161058c90612410565b60405180910390fd5b6000835167ffffffffffffffff8111156105b2576105b1611aa1565b5b6040519080825280602002602001820160405280156105e05781602001602082028036833780820191505090505b50905060005b845181101561065d5761062d85828151811061060557610604612430565b5b60200260200101518583815181106106205761061f612430565b5b6020026020010151610270565b8282815181106106405761063f612430565b5b602002602001018181525050806106569061248e565b90506105e6565b508091505092915050565b610670610c51565b61067a6000610ccf565b565b6000600360009054906101000a900473ffffffffffffffffffffffffffffffffffffffff16905090565b6106b86106b1610928565b8383610d95565b5050565b6000600160008473ffffffffffffffffffffffffffffffffffffffff1673ffffffffffffffffffffffffffffffffffffffff16815260200190815260200160002060008373ffffffffffffffffffffffffffffffffffffffff1673ffffffffffffffffffffffffffffffffffffffff16815260200190815260200160002060009054906101000a900460ff16905092915050565b600061075c6004610f01565b60006107686004610f17565b90506107868482600160405180602001604052806000815250610f25565b61079081846110d5565b8091505092915050565b6107a2610928565b73ffffffffffffffffffffffffffffffffffffffff168573ffffffffffffffffffffffffffffffffffffffff1614806107e857506107e7856107e2610928565b6106bc565b5b610827576040517f08c379a000000000000000000000000000000000000000000000000000000000815260040161081e9061237e565b60405180910390fd5b61083485858585856110fa565b5050505050565b610843610c51565b600073ffffffffffffffffffffffffffffffffffffffff168173ffffffffffffffffffffffffffffffffffffffff16036108b2576040517f08c379a00000000000000000000000000000000000000000000000000000000081526004016108a990612548565b60405180910390fd5b6108bb81610ccf565b50565b60007f01ffc9a7000000000000000000000000000000000000000000000000000000007bffffffffffffffffffffffffffffffffffffffffffffffffffffffff1916827bffffffffffffffffffffffffffffffffffffffffffffffffffffffff1916149050919050565b600033905090565b8151835114610974576040517f08c379a000000000000000000000000000000000000000000000000000000000815260040161096b906125da565b60405180910390fd5b600073ffffffffffffffffffffffffffffffffffffffff168473ffffffffffffffffffffffffffffffffffffffff16036109e3576040517f08c379a00000000000000000000000000000000000000000000000000000000081526004016109da9061266c565b60405180910390fd5b60006109ed610928565b90506109fd818787878787611395565b60005b8451811015610bae576000858281518110610a1e57610a1d612430565b5b602002602001015190506000858381518110610a3d57610a3c612430565b5b60200260200101519050600080600084815260200190815260200160002060008b73ffffffffffffffffffffffffffffffffffffffff1673ffffffffffffffffffffffffffffffffffffffff16815260200190815260200160002054905081811015610ade576040517f08c379a0000000000000000000000000000000000000000000000000000000008152600401610ad5906126fe565b60405180910390fd5b81810360008085815260200190815260200160002060008c73ffffffffffffffffffffffffffffffffffffffff1673ffffffffffffffffffffffffffffffffffffffff168152602001908152602001600020819055508160008085815260200190815260200160002060008b73ffffffffffffffffffffffffffffffffffffffff1673ffffffffffffffffffffffffffffffffffffffff1681526020019081526020016000206000828254610b93919061271e565b9250508190555050505080610ba79061248e565b9050610a00565b508473ffffffffffffffffffffffffffffffffffffffff168673ffffffffffffffffffffffffffffffffffffffff168273ffffffffffffffffffffffffffffffffffffffff167f4a39dc06d4c0dbc64b70af90fd698a233a518aa5d07e595d983b8c0526c8f7fb8787604051610c25929190612752565b60405180910390a4610c3b81878787878761139d565b610c498187878787876113a5565b505050505050565b610c59610928565b73ffffffffffffffffffffffffffffffffffffffff16610c7761067c565b73ffffffffffffffffffffffffffffffffffffffff1614610ccd576040517f08c379a0000000000000000000000000000000000000000000000000000000008152600401610cc4906127d5565b60405180910390fd5b565b6000600360009054906101000a900473ffffffffffffffffffffffffffffffffffffffff16905081600360006101000a81548173ffffffffffffffffffffffffffffffffffffffff021916908373ffffffffffffffffffffffffffffffffffffffff1602179055508173ffffffffffffffffffffffffffffffffffffffff168173ffffffffffffffffffffffffffffffffffffffff167f8be0079c531659141344cd1fd0a4f28419497f9722a3daafe3b4186f6b6457e060405160405180910390a35050565b8173ffffffffffffffffffffffffffffffffffffffff168373ffffffffffffffffffffffffffffffffffffffff1603610e03576040517f08c379a0000000000000000000000000000000000000000000000000000000008152600401610dfa90612867565b60405180910390fd5b80600160008573ffffffffffffffffffffffffffffffffffffffff1673ffffffffffffffffffffffffffffffffffffffff16815260200190815260200160002060008473ffffffffffffffffffffffffffffffffffffffff1673ffffffffffffffffffffffffffffffffffffffff16815260200190815260200160002060006101000a81548160ff0219169083151502179055508173ffffffffffffffffffffffffffffffffffffffff168373ffffffffffffffffffffffffffffffffffffffff167f17307eab39ab6107e8899845ad3d59bd9653f200f220920489ca2b5937696c3183604051610ef491906119a2565b60405180910390a3505050565b6001816000016000828254019250508190555050565b600081600001549050919050565b600073ffffffffffffffffffffffffffffffffffffffff168473ffffffffffffffffffffffffffffffffffffffff1603610f94576040517f08c379a0000000000000000000000000000000000000000000000000000000008152600401610f8b906128f9565b60405180910390fd5b6000610f9e610928565b90506000610fab8561157c565b90506000610fb88561157c565b9050610fc983600089858589611395565b8460008088815260200190815260200160002060008973ffffffffffffffffffffffffffffffffffffffff1673ffffffffffffffffffffffffffffffffffffffff1681526020019081526020016000206000828254611028919061271e565b925050819055508673ffffffffffffffffffffffffffffffffffffffff16600073ffffffffffffffffffffffffffffffffffffffff168473ffffffffffffffffffffffffffffffffffffffff167fc3d58168c5ae7397731d063d5bbf3d657854427343f4c083240f7aacaa2d0f6289896040516110a6929190612919565b60405180910390a46110bd8360008985858961139d565b6110cc836000898989896115f6565b50505050505050565b806005600084815260200190815260200160002090816110f59190612aee565b505050565b600073ffffffffffffffffffffffffffffffffffffffff168473ffffffffffffffffffffffffffffffffffffffff1603611169576040517f08c379a00000000000000000000000000000000000000000000000000000000081526004016111609061266c565b60405180910390fd5b6000611173610928565b905060006111808561157c565b9050600061118d8561157c565b905061119d838989858589611395565b600080600088815260200190815260200160002060008a73ffffffffffffffffffffffffffffffffffffffff1673ffffffffffffffffffffffffffffffffffffffff16815260200190815260200160002054905085811015611234576040517f08c379a000000000000000000000000000000000000000000000000000000000815260040161122b906126fe565b60405180910390fd5b85810360008089815260200190815260200160002060008b73ffffffffffffffffffffffffffffffffffffffff1673ffffffffffffffffffffffffffffffffffffffff168152602001908152602001600020819055508560008089815260200190815260200160002060008a73ffffffffffffffffffffffffffffffffffffffff1673ffffffffffffffffffffffffffffffffffffffff16815260200190815260200160002060008282546112e9919061271e565b925050819055508773ffffffffffffffffffffffffffffffffffffffff168973ffffffffffffffffffffffffffffffffffffffff168573ffffffffffffffffffffffffffffffffffffffff167fc3d58168c5ae7397731d063d5bbf3d657854427343f4c083240f7aacaa2d0f628a8a604051611366929190612919565b60405180910390a461137c848a8a86868a61139d565b61138a848a8a8a8a8a6115f6565b505050505050505050565b505050505050565b505050505050565b6113c48473ffffffffffffffffffffffffffffffffffffffff166117cd565b15611574578373ffffffffffffffffffffffffffffffffffffffff1663bc197c8187878686866040518663ffffffff1660e01b815260040161140a959493929190612c15565b6020604051808303816000875af192505050801561144657506040513d601f19601f820116820180604052508101906114439190612c92565b60015b6114eb57611452612ccc565b806308c379a0036114ae5750611466612cee565b8061147157506114b0565b806040517f08c379a00000000000000000000000000000000000000000000000000000000081526004016114a59190611a7a565b60405180910390fd5b505b6040517f08c379a00000000000000000000000000000000000000000000000000000000081526004016114e290612df0565b60405180910390fd5b63bc197c8160e01b7bffffffffffffffffffffffffffffffffffffffffffffffffffffffff1916817bffffffffffffffffffffffffffffffffffffffffffffffffffffffff191614611572576040517f08c379a000000000000000000000000000000000000000000000000000000000815260040161156990612e82565b60405180910390fd5b505b505050505050565b60606000600167ffffffffffffffff81111561159b5761159a611aa1565b5b6040519080825280602002602001820160405280156115c95781602001602082028036833780820191505090505b50905082816000815181106115e1576115e0612430565b5b60200260200101818152505080915050919050565b6116158473ffffffffffffffffffffffffffffffffffffffff166117cd565b156117c5578373ffffffffffffffffffffffffffffffffffffffff1663f23a6e6187878686866040518663ffffffff1660e01b815260040161165b959493929190612ea2565b6020604051808303816000875af192505050801561169757506040513d601f19601f820116820180604052508101906116949190612c92565b60015b61173c576116a3612ccc565b806308c379a0036116ff57506116b7612cee565b806116c25750611701565b806040517f08c379a00000000000000000000000000000000000000000000000000000000081526004016116f69190611a7a565b60405180910390fd5b505b6040517f08c379a000000000000000000000000000000000000000000000000000000000815260040161173390612df0565b60405180910390fd5b63f23a6e6160e01b7bffffffffffffffffffffffffffffffffffffffffffffffffffffffff1916817bffffffffffffffffffffffffffffffffffffffffffffffffffffffff1916146117c3576040517f08c379a00000000000000000000000000000000000000000000000000000000081526004016117ba90612e82565b60405180910390fd5b505b505050505050565b6000808273ffffffffffffffffffffffffffffffffffffffff163b119050919050565b6000604051905090565b600080fd5b600080fd5b600073ffffffffffffffffffffffffffffffffffffffff82169050919050565b600061182f82611804565b9050919050565b61183f81611824565b811461184a57600080fd5b50565b60008135905061185c81611836565b92915050565b6000819050919050565b61187581611862565b811461188057600080fd5b50565b6000813590506118928161186c565b92915050565b600080604083850312156118af576118ae6117fa565b5b60006118bd8582860161184d565b92505060206118ce85828601611883565b9150509250929050565b6118e181611862565b82525050565b60006020820190506118fc60008301846118d8565b92915050565b60007fffffffff0000000000000000000000000000000000000000000000000000000082169050919050565b61193781611902565b811461194257600080fd5b50565b6000813590506119548161192e565b92915050565b6000602082840312156119705761196f6117fa565b5b600061197e84828501611945565b91505092915050565b60008115159050919050565b61199c81611987565b82525050565b60006020820190506119b76000830184611993565b92915050565b6000602082840312156119d3576119d26117fa565b5b60006119e184828501611883565b91505092915050565b600081519050919050565b600082825260208201905092915050565b60005b83811015611a24578082015181840152602081019050611a09565b60008484015250505050565b6000601f19601f8301169050919050565b6000611a4c826119ea565b611a5681856119f5565b9350611a66818560208601611a06565b611a6f81611a30565b840191505092915050565b60006020820190508181036000830152611a948184611a41565b905092915050565b600080fd5b7f4e487b7100000000000000000000000000000000000000000000000000000000600052604160045260246000fd5b611ad982611a30565b810181811067ffffffffffffffff82111715611af857611af7611aa1565b5b80604052505050565b6000611b0b6117f0565b9050611b178282611ad0565b919050565b600067ffffffffffffffff821115611b3757611b36611aa1565b5b602082029050602081019050919050565b600080fd5b6000611b60611b5b84611b1c565b611b01565b90508083825260208201905060208402830185811115611b8357611b82611b48565b5b835b81811015611bac5780611b988882611883565b845260208401935050602081019050611b85565b5050509392505050565b600082601f830112611bcb57611bca611a9c565b5b8135611bdb848260208601611b4d565b91505092915050565b600080fd5b600067ffffffffffffffff821115611c0457611c03611aa1565b5b611c0d82611a30565b9050602081019050919050565b82818337600083830152505050565b6000611c3c611c3784611be9565b611b01565b905082815260208101848484011115611c5857611c57611be4565b5b611c63848285611c1a565b509392505050565b600082601f830112611c8057611c7f611a9c565b5b8135611c90848260208601611c29565b91505092915050565b600080600080600060a08688031215611cb557611cb46117fa565b5b6000611cc38882890161184d565b9550506020611cd48882890161184d565b945050604086013567ffffffffffffffff811115611cf557611cf46117ff565b5b611d0188828901611bb6565b935050606086013567ffffffffffffffff811115611d2257611d216117ff565b5b611d2e88828901611bb6565b925050608086013567ffffffffffffffff811115611d4f57611d4e6117ff565b5b611d5b88828901611c6b565b9150509295509295909350565b600067ffffffffffffffff821115611d8357611d82611aa1565b5b602082029050602081019050919050565b6000611da7611da284611d68565b611b01565b90508083825260208201905060208402830185811115611dca57611dc9611b48565b5b835b81811015611df35780611ddf888261184d565b845260208401935050602081019050611dcc565b5050509392505050565b600082601f830112611e1257611e11611a9c565b5b8135611e22848260208601611d94565b91505092915050565b60008060408385031215611e4257611e416117fa565b5b600083013567ffffffffffffffff811115611e6057611e5f6117ff565b5b611e6c85828601611dfd565b925050602083013567ffffffffffffffff811115611e8d57611e8c6117ff565b5b611e9985828601611bb6565b9150509250929050565b600081519050919050565b600082825260208201905092915050565b6000819050602082019050919050565b611ed881611862565b82525050565b6000611eea8383611ecf565b60208301905092915050565b6000602082019050919050565b6000611f0e82611ea3565b611f188185611eae565b9350611f2383611ebf565b8060005b83811015611f54578151611f3b8882611ede565b9750611f4683611ef6565b925050600181019050611f27565b5085935050505092915050565b60006020820190508181036000830152611f7b8184611f03565b905092915050565b611f8c81611824565b82525050565b6000602082019050611fa76000830184611f83565b92915050565b611fb681611987565b8114611fc157600080fd5b50565b600081359050611fd381611fad565b92915050565b60008060408385031215611ff057611fef6117fa565b5b6000611ffe8582860161184d565b925050602061200f85828601611fc4565b9150509250929050565b600080604083850312156120305761202f6117fa565b5b600061203e8582860161184d565b925050602061204f8582860161184d565b9150509250929050565b600067ffffffffffffffff82111561207457612073611aa1565b5b61207d82611a30565b9050602081019050919050565b600061209d61209884612059565b611b01565b9050828152602081018484840111156120b9576120b8611be4565b5b6120c4848285611c1a565b509392505050565b600082601f8301126120e1576120e0611a9c565b5b81356120f184826020860161208a565b91505092915050565b60008060408385031215612111576121106117fa565b5b600061211f8582860161184d565b925050602083013567ffffffffffffffff8111156121405761213f6117ff565b5b61214c858286016120cc565b9150509250929050565b600080600080600060a08688031215612172576121716117fa565b5b60006121808882890161184d565b95505060206121918882890161184d565b94505060406121a288828901611883565b93505060606121b388828901611883565b925050608086013567ffffffffffffffff8111156121d4576121d36117ff565b5b6121e088828901611c6b565b9150509295509295909350565b600060208284031215612203576122026117fa565b5b60006122118482850161184d565b91505092915050565b7f455243313135353a2061646472657373207a65726f206973206e6f742061207660008201527f616c6964206f776e657200000000000000000000000000000000000000000000602082015250565b6000612276602a836119f5565b91506122818261221a565b604082019050919050565b600060208201905081810360008301526122a581612269565b9050919050565b7f4e487b7100000000000000000000000000000000000000000000000000000000600052602260045260246000fd5b600060028204905060018216806122f357607f821691505b602082108103612306576123056122ac565b5b50919050565b7f455243313135353a2063616c6c6572206973206e6f7420746f6b656e206f776e60008201527f6572206f7220617070726f766564000000000000000000000000000000000000602082015250565b6000612368602e836119f5565b91506123738261230c565b604082019050919050565b600060208201905081810360008301526123978161235b565b9050919050565b7f455243313135353a206163636f756e747320616e6420696473206c656e67746860008201527f206d69736d617463680000000000000000000000000000000000000000000000602082015250565b60006123fa6029836119f5565b91506124058261239e565b604082019050919050565b60006020820190508181036000830152612429816123ed565b9050919050565b7f4e487b7100000000000000000000000000000000000000000000000000000000600052603260045260246000fd5b7f4e487b7100000000000000000000000000000000000000000000000000000000600052601160045260246000fd5b600061249982611862565b91507fffffffffffffffffffffffffffffffffffffffffffffffffffffffffffffffff82036124cb576124ca61245f565b5b600182019050919050565b7f4f776e61626c653a206e6577206f776e657220697320746865207a65726f206160008201527f6464726573730000000000000000000000000000000000000000000000000000602082015250565b60006125326026836119f5565b915061253d826124d6565b604082019050919050565b6000602082019050818103600083015261256181612525565b9050919050565b7f455243313135353a2069647320616e6420616d6f756e7473206c656e6774682060008201527f6d69736d61746368000000000000000000000000000000000000000000000000602082015250565b60006125c46028836119f5565b91506125cf82612568565b604082019050919050565b600060208201905081810360008301526125f3816125b7565b9050919050565b7f455243313135353a207472616e7366657220746f20746865207a65726f20616460008201527f6472657373000000000000000000000000000000000000000000000000000000602082015250565b60006126566025836119f5565b9150612661826125fa565b604082019050919050565b6000602082019050818103600083015261268581612649565b9050919050565b7f455243313135353a20696e73756666696369656e742062616c616e636520666f60008201527f72207472616e7366657200000000000000000000000000000000000000000000602082015250565b60006126e8602a836119f5565b91506126f38261268c565b604082019050919050565b60006020820190508181036000830152612717816126db565b9050919050565b600061272982611862565b915061273483611862565b925082820190508082111561274c5761274b61245f565b5b92915050565b6000604082019050818103600083015261276c8185611f03565b905081810360208301526127808184611f03565b90509392505050565b7f4f776e61626c653a2063616c6c6572206973206e6f7420746865206f776e6572600082015250565b60006127bf6020836119f5565b91506127ca82612789565b602082019050919050565b600060208201905081810360008301526127ee816127b2565b9050919050565b7f455243313135353a2073657474696e6720617070726f76616c2073746174757360008201527f20666f722073656c660000000000000000000000000000000000000000000000602082015250565b60006128516029836119f5565b915061285c826127f5565b604082019050919050565b6000602082019050818103600083015261288081612844565b9050919050565b7f455243313135353a206d696e7420746f20746865207a65726f2061646472657360008201527f7300000000000000000000000000000000000000000000000000000000000000602082015250565b60006128e36021836119f5565b91506128ee82612887565b604082019050919050565b60006020820190508181036000830152612912816128d6565b9050919050565b600060408201905061292e60008301856118d8565b61293b60208301846118d8565b9392505050565b60008190508160005260206000209050919050565b60006020601f8301049050919050565b600082821b905092915050565b6000600883026129a47fffffffffffffffffffffffffffffffffffffffffffffffffffffffffffffffff82612967565b6129ae8683612967565b95508019841693508086168417925050509392505050565b6000819050919050565b60006129eb6129e66129e184611862565b6129c6565b611862565b9050919050565b6000819050919050565b612a05836129d0565b612a19612a11826129f2565b848454612974565b825550505050565b600090565b612a2e612a21565b612a398184846129fc565b505050565b5b81811015612a5d57612a52600082612a26565b600181019050612a3f565b5050565b601f821115612aa257612a7381612942565b612a7c84612957565b81016020851015612a8b578190505b612a9f612a9785612957565b830182612a3e565b50505b505050565b600082821c905092915050565b6000612ac560001984600802612aa7565b1980831691505092915050565b6000612ade8383612ab4565b9150826002028217905092915050565b612af7826119ea565b67ffffffffffffffff811115612b1057612b0f611aa1565b5b612b1a82546122db565b612b25828285612a61565b600060209050601f831160018114612b585760008415612b46578287015190505b612b508582612ad2565b865550612bb8565b601f198416612b6686612942565b60005b82811015612b8e57848901518255600182019150602085019450602081019050612b69565b86831015612bab5784890151612ba7601f891682612ab4565b8355505b6001600288020188555050505b505050505050565b600081519050919050565b600082825260208201905092915050565b6000612be782612bc0565b612bf18185612bcb565b9350612c01818560208601611a06565b612c0a81611a30565b840191505092915050565b600060a082019050612c2a6000830188611f83565b612c376020830187611f83565b8181036040830152612c498186611f03565b90508181036060830152612c5d8185611f03565b90508181036080830152612c718184612bdc565b90509695505050505050565b600081519050612c8c8161192e565b92915050565b600060208284031215612ca857612ca76117fa565b5b6000612cb684828501612c7d565b91505092915050565b60008160e01c9050919050565b600060033d1115612ceb5760046000803e612ce8600051612cbf565b90505b90565b600060443d10612d7b57612d006117f0565b60043d036004823e80513d602482011167ffffffffffffffff82111715612d28575050612d7b565b808201805167ffffffffffffffff811115612d465750505050612d7b565b80602083010160043d038501811115612d63575050505050612d7b565b612d7282602001850186611ad0565b82955050505050505b90565b7f455243313135353a207472616e7366657220746f206e6f6e2d4552433131353560008201527f526563656976657220696d706c656d656e746572000000000000000000000000602082015250565b6000612dda6034836119f5565b9150612de582612d7e565b604082019050919050565b60006020820190508181036000830152612e0981612dcd565b9050919050565b7f455243313135353a204552433131353552656365697665722072656a6563746560008201527f6420746f6b656e73000000000000000000000000000000000000000000000000602082015250565b6000612e6c6028836119f5565b9150612e7782612e10565b604082019050919050565b60006020820190508181036000830152612e9b81612e5f565b9050919050565b600060a082019050612eb76000830188611f83565b612ec46020830187611f83565b612ed160408301866118d8565b612ede60608301856118d8565b8181036080830152612ef08184612bdc565b9050969550505050505056fea264697066735822122091718b7840c24236149285d926dc330c3c65e892cae0f387c03765c2f718d0ad64736f6c63430008110033",
  "linkReferences": {},
  "deployedLinkReferences": {}
}